{
  "_format": "hh-sol-artifact-1",
  "contractName": "FunctionsConsumer",
  "sourceName": "contracts/FunctionsConsumer.sol",
  "abi": [
    {
      "inputs": [
        {
          "internalType": "address",
          "name": "router",
          "type": "address"
        },
        {
          "internalType": "bytes32",
          "name": "_donId",
          "type": "bytes32"
        }
      ],
      "stateMutability": "nonpayable",
      "type": "constructor"
    },
    {
      "inputs": [],
      "name": "EmptyArgs",
      "type": "error"
    },
    {
      "inputs": [],
      "name": "EmptySource",
      "type": "error"
    },
    {
      "inputs": [],
      "name": "NoInlineSecrets",
      "type": "error"
    },
    {
      "inputs": [],
      "name": "OnlyRouterCanFulfill",
      "type": "error"
    },
    {
      "anonymous": false,
      "inputs": [
        {
          "indexed": true,
          "internalType": "address",
          "name": "from",
          "type": "address"
        },
        {
          "indexed": true,
          "internalType": "address",
          "name": "to",
          "type": "address"
        }
      ],
      "name": "OwnershipTransferRequested",
      "type": "event"
    },
    {
      "anonymous": false,
      "inputs": [
        {
          "indexed": true,
          "internalType": "address",
          "name": "from",
          "type": "address"
        },
        {
          "indexed": true,
          "internalType": "address",
          "name": "to",
          "type": "address"
        }
      ],
      "name": "OwnershipTransferred",
      "type": "event"
    },
    {
      "anonymous": false,
      "inputs": [
        {
          "indexed": true,
          "internalType": "bytes32",
          "name": "id",
          "type": "bytes32"
        }
      ],
      "name": "RequestFulfilled",
      "type": "event"
    },
    {
      "anonymous": false,
      "inputs": [
        {
          "indexed": true,
          "internalType": "bytes32",
          "name": "id",
          "type": "bytes32"
        }
      ],
      "name": "RequestSent",
      "type": "event"
    },
    {
      "inputs": [],
      "name": "acceptOwnership",
      "outputs": [],
      "stateMutability": "nonpayable",
      "type": "function"
    },
    {
      "inputs": [],
      "name": "donId",
      "outputs": [
        {
          "internalType": "bytes32",
          "name": "",
          "type": "bytes32"
        }
      ],
      "stateMutability": "view",
      "type": "function"
    },
    {
      "inputs": [
        {
          "internalType": "bytes32",
          "name": "requestId",
          "type": "bytes32"
        },
        {
          "internalType": "bytes",
          "name": "response",
          "type": "bytes"
        },
        {
          "internalType": "bytes",
          "name": "err",
          "type": "bytes"
        }
      ],
      "name": "handleOracleFulfillment",
      "outputs": [],
      "stateMutability": "nonpayable",
      "type": "function"
    },
    {
      "inputs": [],
      "name": "owner",
      "outputs": [
        {
          "internalType": "address",
          "name": "",
          "type": "address"
        }
      ],
      "stateMutability": "view",
      "type": "function"
    },
    {
      "inputs": [],
      "name": "s_lastError",
      "outputs": [
        {
          "internalType": "bytes",
          "name": "",
          "type": "bytes"
        }
      ],
      "stateMutability": "view",
      "type": "function"
    },
    {
      "inputs": [],
      "name": "s_lastRequestId",
      "outputs": [
        {
          "internalType": "bytes32",
          "name": "",
          "type": "bytes32"
        }
      ],
      "stateMutability": "view",
      "type": "function"
    },
    {
      "inputs": [],
      "name": "s_lastResponse",
      "outputs": [
        {
          "internalType": "bytes",
          "name": "",
          "type": "bytes"
        }
      ],
      "stateMutability": "view",
      "type": "function"
    },
    {
      "inputs": [
        {
          "internalType": "string",
          "name": "source",
          "type": "string"
        },
        {
          "internalType": "enum FunctionsRequest.Location",
          "name": "secretsLocation",
          "type": "uint8"
        },
        {
          "internalType": "string[]",
          "name": "args",
          "type": "string[]"
        },
        {
          "internalType": "bytes[]",
          "name": "bytesArgs",
          "type": "bytes[]"
        },
        {
          "internalType": "uint64",
          "name": "subscriptionId",
          "type": "uint64"
        },
        {
          "internalType": "uint32",
          "name": "callbackGasLimit",
          "type": "uint32"
        }
      ],
      "name": "sendRequest",
      "outputs": [],
      "stateMutability": "nonpayable",
      "type": "function"
    },
    {
      "inputs": [
        {
          "internalType": "bytes32",
          "name": "newDonId",
          "type": "bytes32"
        }
      ],
      "name": "setDonId",
      "outputs": [],
      "stateMutability": "nonpayable",
      "type": "function"
    },
    {
      "inputs": [
        {
          "internalType": "address",
          "name": "to",
          "type": "address"
        }
      ],
      "name": "transferOwnership",
      "outputs": [],
      "stateMutability": "nonpayable",
      "type": "function"
    }
  ],
  "bytecode": "0x60a06040523480156200001157600080fd5b506040516200199a3803806200199a833981016040819052620000349162000183565b6001600160a01b0382166080523380600081620000985760405162461bcd60e51b815260206004820152601860248201527f43616e6e6f7420736574206f776e657220746f207a65726f000000000000000060448201526064015b60405180910390fd5b600080546001600160a01b0319166001600160a01b0384811691909117909155811615620000cb57620000cb81620000d8565b50505060025550620001bf565b336001600160a01b03821603620001325760405162461bcd60e51b815260206004820152601760248201527f43616e6e6f74207472616e7366657220746f2073656c6600000000000000000060448201526064016200008f565b600180546001600160a01b0319166001600160a01b0383811691821790925560008054604051929316917fed8889f560326eb138920d842192f0eb3dd22b4f139c87a2c57538e05bae12789190a350565b600080604083850312156200019757600080fd5b82516001600160a01b0381168114620001af57600080fd5b6020939093015192949293505050565b6080516117b8620001e260003960008181610185015261099501526117b86000f3fe608060405234801561001057600080fd5b50600436106100be5760003560e01c806379ba5097116100765780638dbe7b9d1161005b5780638dbe7b9d14610147578063b1e217491461015e578063f2fde38b1461016757600080fd5b806379ba5097146101245780638da5cb5b1461012c57600080fd5b80634b0795a8116100a75780634b0795a8146100f65780635e8ac600146100fe57806378ca5de71461011157600080fd5b80630ca76175146100c35780633944ea3a146100d8575b600080fd5b6100d66100d1366004611087565b61017a565b005b6100e0610217565b6040516100ed919061113a565b60405180910390f35b6100e06102a5565b6100d661010c3660046111d9565b6102b2565b6100d661011f3660046112d2565b6103c7565b6100d66103d4565b6000546040516001600160a01b0390911681526020016100ed565b61015060025481565b6040519081526020016100ed565b61015060035481565b6100d66101753660046112eb565b610497565b336001600160a01b037f000000000000000000000000000000000000000000000000000000000000000016146101dc576040517fc6829f8300000000000000000000000000000000000000000000000000000000815260040160405180910390fd5b6101e78383836104ab565b60405183907f85e1543bf2f84fe80c6badbce3648c8539ad1df4d2b3d822938ca0538be727e690600090a2505050565b6004805461022490611314565b80601f016020809104026020016040519081016040528092919081815260200182805461025090611314565b801561029d5780601f106102725761010080835404028352916020019161029d565b820191906000526020600020905b81548152906001019060200180831161028057829003601f168201915b505050505081565b6005805461022490611314565b6102ba6104ca565b6102fb6040805160e0810190915280600081526020016000815260200160008152602001606081526020016060815260200160608152602001606081525090565b6103426000808c8c8080601f016020809104026020016040519081016040528093929190818152602001838380828437600092019190915250879594939250506105269050565b602081018860028111156103585761035861134e565b9081600281111561036b5761036b61134e565b9052508515610388576103886103818789611388565b82906105bd565b83156103a2576103a261039b8587611415565b82906105e7565b6103b86103ae82610611565b8484600254610990565b60035550505050505050505050565b6103cf6104ca565b600255565b6001546001600160a01b031633146104335760405162461bcd60e51b815260206004820152601660248201527f4d7573742062652070726f706f736564206f776e65720000000000000000000060448201526064015b60405180910390fd5b600080543373ffffffffffffffffffffffffffffffffffffffff19808316821784556001805490911690556040516001600160a01b0390921692909183917f8be0079c531659141344cd1fd0a4f28419497f9722a3daafe3b4186f6b6457e091a350565b61049f6104ca565b6104a881610a62565b50565b60046104b783826114cb565b5060056104c482826114cb565b50505050565b6000546001600160a01b031633146105245760405162461bcd60e51b815260206004820152601660248201527f4f6e6c792063616c6c61626c65206279206f776e657200000000000000000000604482015260640161042a565b565b8051600003610561576040517f22ce3edd00000000000000000000000000000000000000000000000000000000815260040160405180910390fd5b838360028111156105745761057461134e565b908160028111156105875761058761134e565b9052506040840182801561059d5761059d61134e565b908180156105ad576105ad61134e565b9052506060909301929092525050565b80516000036105df5760405163fe936cb760e01b815260040160405180910390fd5b60a090910152565b80516000036106095760405163fe936cb760e01b815260040160405180910390fd5b60c090910152565b60606000610620610100610b18565b905061066a6040518060400160405280600c81526020017f636f64654c6f636174696f6e000000000000000000000000000000000000000081525082610b3990919063ffffffff16565b82516106889060028111156106815761068161134e565b8290610b57565b60408051808201909152600881527f6c616e677561676500000000000000000000000000000000000000000000000060208201526106c7908290610b39565b60408301516106de9080156106815761068161134e565b60408051808201909152600681527f736f757263650000000000000000000000000000000000000000000000000000602082015261071d908290610b39565b606083015161072d908290610b39565b60a083015151156107da5760408051808201909152600481527f61726773000000000000000000000000000000000000000000000000000000006020820152610777908290610b39565b61078081610b94565b60005b8360a00151518110156107d0576107c08460a0015182815181106107a9576107a961158b565b602002602001015183610b3990919063ffffffff16565b6107c9816115b7565b9050610783565b506107da81610bb8565b608083015151156108db576000836020015160028111156107fd576107fd61134e565b03610834576040517fa80d31f700000000000000000000000000000000000000000000000000000000815260040160405180910390fd5b60408051808201909152600f81527f736563726574734c6f636174696f6e00000000000000000000000000000000006020820152610873908290610b39565b61088c836020015160028111156106815761068161134e565b60408051808201909152600781527f736563726574730000000000000000000000000000000000000000000000000060208201526108cb908290610b39565b60808301516108db908290610bd6565b60c083015151156109885760408051808201909152600981527f62797465734172677300000000000000000000000000000000000000000000006020820152610925908290610b39565b61092e81610b94565b60005b8360c001515181101561097e5761096e8460c0015182815181106109575761095761158b565b602002602001015183610bd690919063ffffffff16565b610977816115b7565b9050610931565b5061098881610bb8565b515192915050565b6000807f00000000000000000000000000000000000000000000000000000000000000006001600160a01b031663461d27628688600188886040518663ffffffff1660e01b81526004016109e89594939291906115d0565b6020604051808303816000875af1158015610a07573d6000803e3d6000fd5b505050506040513d601f19601f82011682018060405250810190610a2b919061161a565b60405190915081907f1131472297a800fee664d1d89cfa8f7676ff07189ecc53f80bbb5f4969099db890600090a295945050505050565b336001600160a01b03821603610aba5760405162461bcd60e51b815260206004820152601760248201527f43616e6e6f74207472616e7366657220746f2073656c66000000000000000000604482015260640161042a565b6001805473ffffffffffffffffffffffffffffffffffffffff19166001600160a01b0383811691821790925560008054604051929316917fed8889f560326eb138920d842192f0eb3dd22b4f139c87a2c57538e05bae12789190a350565b610b20610f93565b8051610b2c9083610be3565b5060006020820152919050565b610b468260038351610c5d565b8151610b529082610d7e565b505050565b8151610b649060c2610da6565b50610b908282604051602001610b7c91815260200190565b604051602081830303815290604052610bd6565b5050565b610b9f816004610e0f565b600181602001818151610bb29190611633565b90525050565b610bc3816007610e0f565b600181602001818151610bb29190611646565b610b468260028351610c5d565b604080518082019091526060815260006020820152610c03602083611659565b15610c2b57610c13602083611659565b610c1e906020611646565b610c289083611633565b91505b602080840183905260405180855260008152908184010181811015610c4f57600080fd5b604052508290505b92915050565b60178167ffffffffffffffff1611610c845782516104c49060e0600585901b168317610da6565b60ff8167ffffffffffffffff1611610cc6578251610cad906018611fe0600586901b1617610da6565b5082516104c49067ffffffffffffffff83166001610e26565b61ffff8167ffffffffffffffff1611610d09578251610cf0906019611fe0600586901b1617610da6565b5082516104c49067ffffffffffffffff83166002610e26565b63ffffffff8167ffffffffffffffff1611610d4e578251610d3590601a611fe0600586901b1617610da6565b5082516104c49067ffffffffffffffff83166004610e26565b8251610d6590601b611fe0600586901b1617610da6565b5082516104c49067ffffffffffffffff83166008610e26565b604080518082019091526060815260006020820152610d9f83838451610eab565b9392505050565b6040805180820190915260608152600060208201528251516000610dcb826001611633565b905084602001518210610dec57610dec85610de783600261167b565b610f7c565b8451602083820101858153508051821115610e05578181525b5093949350505050565b8151610b5290601f611fe0600585901b1617610da6565b6040805180820190915260608152600060208201528351516000610e4a8285611633565b90508560200151811115610e6757610e6786610de783600261167b565b60006001610e7786610100611776565b610e819190611646565b90508651828101878319825116178152508051831115610e9f578281525b50959695505050505050565b6040805180820190915260608152600060208201528251821115610ece57600080fd5b8351516000610edd8483611633565b90508560200151811115610efa57610efa86610de783600261167b565b855180518382016020019160009180851115610f14578482525b505050602086015b60208610610f545780518252610f33602083611633565b9150610f40602082611633565b9050610f4d602087611646565b9550610f1c565b51815160001960208890036101000a0190811690199190911617905250849150509392505050565b8151610f888383610be3565b506104c48382610d7e565b6040518060400160405280610fbb604051806040016040528060608152602001600081525090565b8152602001600081525090565b634e487b7160e01b600052604160045260246000fd5b604051601f8201601f1916810167ffffffffffffffff8111828210171561100757611007610fc8565b604052919050565b600067ffffffffffffffff83111561102957611029610fc8565b61103c601f8401601f1916602001610fde565b905082815283838301111561105057600080fd5b828260208301376000602084830101529392505050565b600082601f83011261107857600080fd5b610d9f8383356020850161100f565b60008060006060848603121561109c57600080fd5b83359250602084013567ffffffffffffffff808211156110bb57600080fd5b6110c787838801611067565b935060408601359150808211156110dd57600080fd5b506110ea86828701611067565b9150509250925092565b6000815180845260005b8181101561111a576020818501810151868301820152016110fe565b506000602082860101526020601f19601f83011685010191505092915050565b602081526000610d9f60208301846110f4565b80356003811061115c57600080fd5b919050565b60008083601f84011261117357600080fd5b50813567ffffffffffffffff81111561118b57600080fd5b6020830191508360208260051b85010111156111a657600080fd5b9250929050565b803567ffffffffffffffff8116811461115c57600080fd5b803563ffffffff8116811461115c57600080fd5b600080600080600080600080600060c08a8c0312156111f757600080fd5b893567ffffffffffffffff8082111561120f57600080fd5b818c0191508c601f83011261122357600080fd5b81358181111561123257600080fd5b8d602082850101111561124457600080fd5b602083019b50809a505061125a60208d0161114d565b985060408c013591508082111561127057600080fd5b61127c8d838e01611161565b909850965060608c013591508082111561129557600080fd5b506112a28c828d01611161565b90955093506112b5905060808b016111ad565b91506112c360a08b016111c5565b90509295985092959850929598565b6000602082840312156112e457600080fd5b5035919050565b6000602082840312156112fd57600080fd5b81356001600160a01b0381168114610d9f57600080fd5b600181811c9082168061132857607f821691505b60208210810361134857634e487b7160e01b600052602260045260246000fd5b50919050565b634e487b7160e01b600052602160045260246000fd5b600067ffffffffffffffff82111561137e5761137e610fc8565b5060051b60200190565b600061139b61139684611364565b610fde565b80848252602080830192508560051b8501368111156113b957600080fd5b855b8181101561140957803567ffffffffffffffff8111156113db5760008081fd5b870136601f8201126113ed5760008081fd5b6113fb36823586840161100f565b8652509382019382016113bb565b50919695505050505050565b600061142361139684611364565b80848252602080830192508560051b85013681111561144157600080fd5b855b8181101561140957803567ffffffffffffffff8111156114635760008081fd5b61146f36828a01611067565b865250938201938201611443565b601f821115610b5257600081815260208120601f850160051c810160208610156114a45750805b601f850160051c820191505b818110156114c3578281556001016114b0565b505050505050565b815167ffffffffffffffff8111156114e5576114e5610fc8565b6114f9816114f38454611314565b8461147d565b602080601f83116001811461152e57600084156115165750858301515b600019600386901b1c1916600185901b1785556114c3565b600085815260208120601f198616915b8281101561155d5788860151825594840194600190910190840161153e565b508582101561157b5787850151600019600388901b60f8161c191681555b5050505050600190811b01905550565b634e487b7160e01b600052603260045260246000fd5b634e487b7160e01b600052601160045260246000fd5b6000600182016115c9576115c96115a1565b5060010190565b67ffffffffffffffff8616815260a0602082015260006115f360a08301876110f4565b61ffff9590951660408301525063ffffffff92909216606083015260809091015292915050565b60006020828403121561162c57600080fd5b5051919050565b80820180821115610c5757610c576115a1565b81810381811115610c5757610c576115a1565b60008261167657634e487b7160e01b600052601260045260246000fd5b500690565b8082028115828204841417610c5757610c576115a1565b600181815b808511156116cd5781600019048211156116b3576116b36115a1565b808516156116c057918102915b93841c9390800290611697565b509250929050565b6000826116e457506001610c57565b816116f157506000610c57565b816001811461170757600281146117115761172d565b6001915050610c57565b60ff841115611722576117226115a1565b50506001821b610c57565b5060208310610133831016604e8410600b8410161715611750575081810a610c57565b61175a8383611692565b806000190482111561176e5761176e6115a1565b029392505050565b6000610d9f83836116d556fea26469706673582212202969c9c91d78887d52dc42e728cb6b43ce6659ea71dda98fa30a7621680299d864736f6c63430008130033",
  "linkReferences": {},
  "deployedLinkReferences": {}
}